{
  "address": "0xFa37Fab964dCfaF5d48F67037Ae03d2C69bdd3fe",
  "abi": [
    {
      "inputs": [],
      "name": "NotAuthorized",
      "type": "error"
    },
    {
      "anonymous": false,
      "inputs": [
        {
          "indexed": false,
          "internalType": "address",
          "name": "previousAdmin",
          "type": "address"
        },
        {
          "indexed": false,
          "internalType": "address",
          "name": "newAdmin",
          "type": "address"
        }
      ],
      "name": "AdminChanged",
      "type": "event"
    },
    {
      "anonymous": false,
      "inputs": [
        {
          "indexed": true,
          "internalType": "address",
          "name": "beacon",
          "type": "address"
        }
      ],
      "name": "BeaconUpgraded",
      "type": "event"
    },
    {
      "anonymous": false,
      "inputs": [
        {
          "indexed": false,
          "internalType": "uint64",
          "name": "oldVoteExtension",
          "type": "uint64"
        },
        {
          "indexed": false,
          "internalType": "uint64",
          "name": "newVoteExtension",
          "type": "uint64"
        }
      ],
      "name": "LateQuorumVoteExtensionSet",
      "type": "event"
    },
    {
      "anonymous": false,
      "inputs": [
        {
          "indexed": false,
          "internalType": "uint256",
          "name": "proposalId",
          "type": "uint256"
        }
      ],
      "name": "ProposalCanceled",
      "type": "event"
    },
    {
      "anonymous": false,
      "inputs": [
        {
          "indexed": false,
          "internalType": "uint256",
          "name": "proposalId",
          "type": "uint256"
        },
        {
          "indexed": false,
          "internalType": "address",
          "name": "proposer",
          "type": "address"
        },
        {
          "indexed": false,
          "internalType": "address[]",
          "name": "targets",
          "type": "address[]"
        },
        {
          "indexed": false,
          "internalType": "uint256[]",
          "name": "values",
          "type": "uint256[]"
        },
        {
          "indexed": false,
          "internalType": "string[]",
          "name": "signatures",
          "type": "string[]"
        },
        {
          "indexed": false,
          "internalType": "bytes[]",
          "name": "calldatas",
          "type": "bytes[]"
        },
        {
          "indexed": false,
          "internalType": "uint256",
          "name": "startBlock",
          "type": "uint256"
        },
        {
          "indexed": false,
          "internalType": "uint256",
          "name": "endBlock",
          "type": "uint256"
        },
        {
          "indexed": false,
          "internalType": "string",
          "name": "description",
          "type": "string"
        }
      ],
      "name": "ProposalCreated",
      "type": "event"
    },
    {
      "anonymous": false,
      "inputs": [
        {
          "indexed": false,
          "internalType": "uint256",
          "name": "proposalId",
          "type": "uint256"
        }
      ],
      "name": "ProposalExecuted",
      "type": "event"
    },
    {
      "anonymous": false,
      "inputs": [
        {
          "indexed": true,
          "internalType": "uint256",
          "name": "proposalId",
          "type": "uint256"
        },
        {
          "indexed": false,
          "internalType": "uint64",
          "name": "extendedDeadline",
          "type": "uint64"
        }
      ],
      "name": "ProposalExtended",
      "type": "event"
    },
    {
      "anonymous": false,
      "inputs": [
        {
          "indexed": false,
          "internalType": "uint256",
          "name": "proposalId",
          "type": "uint256"
        },
        {
          "indexed": false,
          "internalType": "uint256",
          "name": "eta",
          "type": "uint256"
        }
      ],
      "name": "ProposalQueued",
      "type": "event"
    },
    {
      "anonymous": false,
      "inputs": [
        {
          "indexed": false,
          "internalType": "uint256",
          "name": "oldProposalThreshold",
          "type": "uint256"
        },
        {
          "indexed": false,
          "internalType": "uint256",
          "name": "newProposalThreshold",
          "type": "uint256"
        }
      ],
      "name": "ProposalThresholdSet",
      "type": "event"
    },
    {
      "anonymous": false,
      "inputs": [
        {
          "indexed": false,
          "internalType": "uint256",
          "name": "oldQuorumNumerator",
          "type": "uint256"
        },
        {
          "indexed": false,
          "internalType": "uint256",
          "name": "newQuorumNumerator",
          "type": "uint256"
        }
      ],
      "name": "QuorumNumeratorUpdated",
      "type": "event"
    },
    {
      "anonymous": false,
      "inputs": [
        {
          "indexed": false,
          "internalType": "address",
          "name": "oldTimelock",
          "type": "address"
        },
        {
          "indexed": false,
          "internalType": "address",
          "name": "newTimelock",
          "type": "address"
        }
      ],
      "name": "TimelockChange",
      "type": "event"
    },
    {
      "anonymous": false,
      "inputs": [
        {
          "indexed": true,
          "internalType": "address",
          "name": "implementation",
          "type": "address"
        }
      ],
      "name": "Upgraded",
      "type": "event"
    },
    {
      "anonymous": false,
      "inputs": [
        {
          "indexed": true,
          "internalType": "address",
          "name": "voter",
          "type": "address"
        },
        {
          "indexed": false,
          "internalType": "uint256",
          "name": "proposalId",
          "type": "uint256"
        },
        {
          "indexed": false,
          "internalType": "uint8",
          "name": "support",
          "type": "uint8"
        },
        {
          "indexed": false,
          "internalType": "uint256",
          "name": "weight",
          "type": "uint256"
        },
        {
          "indexed": false,
          "internalType": "string",
          "name": "reason",
          "type": "string"
        }
      ],
      "name": "VoteCast",
      "type": "event"
    },
    {
      "anonymous": false,
      "inputs": [
        {
          "indexed": false,
          "internalType": "uint256",
          "name": "oldVotingDelay",
          "type": "uint256"
        },
        {
          "indexed": false,
          "internalType": "uint256",
          "name": "newVotingDelay",
          "type": "uint256"
        }
      ],
      "name": "VotingDelaySet",
      "type": "event"
    },
    {
      "anonymous": false,
      "inputs": [
        {
          "indexed": false,
          "internalType": "uint256",
          "name": "oldVotingPeriod",
          "type": "uint256"
        },
        {
          "indexed": false,
          "internalType": "uint256",
          "name": "newVotingPeriod",
          "type": "uint256"
        }
      ],
      "name": "VotingPeriodSet",
      "type": "event"
    },
    {
      "inputs": [],
      "name": "BALLOT_TYPEHASH",
      "outputs": [
        {
          "internalType": "bytes32",
          "name": "",
          "type": "bytes32"
        }
      ],
      "stateMutability": "view",
      "type": "function"
    },
    {
      "inputs": [],
      "name": "COUNTING_MODE",
      "outputs": [
        {
          "internalType": "string",
          "name": "",
          "type": "string"
        }
      ],
      "stateMutability": "pure",
      "type": "function"
    },
    {
      "inputs": [],
      "name": "accessControl",
      "outputs": [
        {
          "internalType": "contract IAccessControlDAO",
          "name": "",
          "type": "address"
        }
      ],
      "stateMutability": "view",
      "type": "function"
    },
    {
      "inputs": [
        {
          "internalType": "uint256",
          "name": "proposalId",
          "type": "uint256"
        },
        {
          "internalType": "uint8",
          "name": "support",
          "type": "uint8"
        }
      ],
      "name": "castVote",
      "outputs": [
        {
          "internalType": "uint256",
          "name": "",
          "type": "uint256"
        }
      ],
      "stateMutability": "nonpayable",
      "type": "function"
    },
    {
      "inputs": [
        {
          "internalType": "uint256",
          "name": "proposalId",
          "type": "uint256"
        },
        {
          "internalType": "uint8",
          "name": "support",
          "type": "uint8"
        },
        {
          "internalType": "uint8",
          "name": "v",
          "type": "uint8"
        },
        {
          "internalType": "bytes32",
          "name": "r",
          "type": "bytes32"
        },
        {
          "internalType": "bytes32",
          "name": "s",
          "type": "bytes32"
        }
      ],
      "name": "castVoteBySig",
      "outputs": [
        {
          "internalType": "uint256",
          "name": "",
          "type": "uint256"
        }
      ],
      "stateMutability": "nonpayable",
      "type": "function"
    },
    {
      "inputs": [
        {
          "internalType": "uint256",
          "name": "proposalId",
          "type": "uint256"
        },
        {
          "internalType": "uint8",
          "name": "support",
          "type": "uint8"
        },
        {
          "internalType": "string",
          "name": "reason",
          "type": "string"
        }
      ],
      "name": "castVoteWithReason",
      "outputs": [
        {
          "internalType": "uint256",
          "name": "",
          "type": "uint256"
        }
      ],
      "stateMutability": "nonpayable",
      "type": "function"
    },
    {
      "inputs": [
        {
          "internalType": "address[]",
          "name": "targets",
          "type": "address[]"
        },
        {
          "internalType": "uint256[]",
          "name": "values",
          "type": "uint256[]"
        },
        {
          "internalType": "bytes[]",
          "name": "calldatas",
          "type": "bytes[]"
        },
        {
          "internalType": "bytes32",
          "name": "descriptionHash",
          "type": "bytes32"
        }
      ],
      "name": "execute",
      "outputs": [
        {
          "internalType": "uint256",
          "name": "",
          "type": "uint256"
        }
      ],
      "stateMutability": "payable",
      "type": "function"
    },
    {
      "inputs": [
        {
          "internalType": "address",
          "name": "account",
          "type": "address"
        },
        {
          "internalType": "uint256",
          "name": "blockNumber",
          "type": "uint256"
        }
      ],
      "name": "getVotes",
      "outputs": [
        {
          "internalType": "uint256",
          "name": "",
          "type": "uint256"
        }
      ],
      "stateMutability": "view",
      "type": "function"
    },
    {
      "inputs": [
        {
          "internalType": "uint256",
          "name": "proposalId",
          "type": "uint256"
        },
        {
          "internalType": "address",
          "name": "account",
          "type": "address"
        }
      ],
      "name": "hasVoted",
      "outputs": [
        {
          "internalType": "bool",
          "name": "",
          "type": "bool"
        }
      ],
      "stateMutability": "view",
      "type": "function"
    },
    {
      "inputs": [
        {
          "internalType": "address[]",
          "name": "targets",
          "type": "address[]"
        },
        {
          "internalType": "uint256[]",
          "name": "values",
          "type": "uint256[]"
        },
        {
          "internalType": "bytes[]",
          "name": "calldatas",
          "type": "bytes[]"
        },
        {
          "internalType": "bytes32",
          "name": "descriptionHash",
          "type": "bytes32"
        }
      ],
      "name": "hashProposal",
      "outputs": [
        {
          "internalType": "uint256",
          "name": "",
          "type": "uint256"
        }
      ],
      "stateMutability": "pure",
      "type": "function"
    },
    {
      "inputs": [
        {
          "internalType": "contract IVotesUpgradeable",
          "name": "_token",
          "type": "address"
        },
        {
          "internalType": "contract ITimelockUpgradeable",
          "name": "_timelock",
          "type": "address"
        },
        {
          "internalType": "uint64",
          "name": "_initialVoteExtension",
          "type": "uint64"
        },
        {
          "internalType": "uint256",
          "name": "_initialVotingDelay",
          "type": "uint256"
        },
        {
          "internalType": "uint256",
          "name": "_initialVotingPeriod",
          "type": "uint256"
        },
        {
          "internalType": "uint256",
          "name": "_initialProposalThreshold",
          "type": "uint256"
        },
        {
          "internalType": "uint256",
          "name": "_initialQuorumNumeratorValue",
          "type": "uint256"
        },
        {
          "internalType": "address",
          "name": "_accessControl",
          "type": "address"
        }
      ],
      "name": "initialize",
      "outputs": [],
      "stateMutability": "nonpayable",
      "type": "function"
    },
    {
      "inputs": [],
      "name": "lateQuorumVoteExtension",
      "outputs": [
        {
          "internalType": "uint64",
          "name": "",
          "type": "uint64"
        }
      ],
      "stateMutability": "view",
      "type": "function"
    },
    {
      "inputs": [],
      "name": "moduleFactory",
      "outputs": [
        {
          "internalType": "address",
          "name": "",
          "type": "address"
        }
      ],
      "stateMutability": "view",
      "type": "function"
    },
    {
      "inputs": [],
      "name": "name",
      "outputs": [
        {
          "internalType": "string",
          "name": "",
          "type": "string"
        }
      ],
      "stateMutability": "view",
      "type": "function"
    },
    {
      "inputs": [
        {
          "internalType": "uint256",
          "name": "proposalId",
          "type": "uint256"
        }
      ],
      "name": "proposalDeadline",
      "outputs": [
        {
          "internalType": "uint256",
          "name": "",
          "type": "uint256"
        }
      ],
      "stateMutability": "view",
      "type": "function"
    },
    {
      "inputs": [
        {
          "internalType": "uint256",
          "name": "proposalId",
          "type": "uint256"
        }
      ],
      "name": "proposalEta",
      "outputs": [
        {
          "internalType": "uint256",
          "name": "",
          "type": "uint256"
        }
      ],
      "stateMutability": "view",
      "type": "function"
    },
    {
      "inputs": [
        {
          "internalType": "uint256",
          "name": "proposalId",
          "type": "uint256"
        }
      ],
      "name": "proposalSnapshot",
      "outputs": [
        {
          "internalType": "uint256",
          "name": "",
          "type": "uint256"
        }
      ],
      "stateMutability": "view",
      "type": "function"
    },
    {
      "inputs": [],
      "name": "proposalThreshold",
      "outputs": [
        {
          "internalType": "uint256",
          "name": "",
          "type": "uint256"
        }
      ],
      "stateMutability": "view",
      "type": "function"
    },
    {
      "inputs": [
        {
          "internalType": "uint256",
          "name": "proposalId",
          "type": "uint256"
        }
      ],
      "name": "proposalVotes",
      "outputs": [
        {
          "internalType": "uint256",
          "name": "againstVotes",
          "type": "uint256"
        },
        {
          "internalType": "uint256",
          "name": "forVotes",
          "type": "uint256"
        },
        {
          "internalType": "uint256",
          "name": "abstainVotes",
          "type": "uint256"
        }
      ],
      "stateMutability": "view",
      "type": "function"
    },
    {
      "inputs": [
        {
          "internalType": "address[]",
          "name": "targets",
          "type": "address[]"
        },
        {
          "internalType": "uint256[]",
          "name": "values",
          "type": "uint256[]"
        },
        {
          "internalType": "bytes[]",
          "name": "calldatas",
          "type": "bytes[]"
        },
        {
          "internalType": "string",
          "name": "description",
          "type": "string"
        }
      ],
      "name": "propose",
      "outputs": [
        {
          "internalType": "uint256",
          "name": "",
          "type": "uint256"
        }
      ],
      "stateMutability": "nonpayable",
      "type": "function"
    },
    {
      "inputs": [],
      "name": "proxiableUUID",
      "outputs": [
        {
          "internalType": "bytes32",
          "name": "",
          "type": "bytes32"
        }
      ],
      "stateMutability": "view",
      "type": "function"
    },
    {
      "inputs": [
        {
          "internalType": "address[]",
          "name": "targets",
          "type": "address[]"
        },
        {
          "internalType": "uint256[]",
          "name": "values",
          "type": "uint256[]"
        },
        {
          "internalType": "bytes[]",
          "name": "calldatas",
          "type": "bytes[]"
        },
        {
          "internalType": "bytes32",
          "name": "descriptionHash",
          "type": "bytes32"
        }
      ],
      "name": "queue",
      "outputs": [
        {
          "internalType": "uint256",
          "name": "",
          "type": "uint256"
        }
      ],
      "stateMutability": "nonpayable",
      "type": "function"
    },
    {
      "inputs": [
        {
          "internalType": "uint256",
          "name": "blockNumber",
          "type": "uint256"
        }
      ],
      "name": "quorum",
      "outputs": [
        {
          "internalType": "uint256",
          "name": "",
          "type": "uint256"
        }
      ],
      "stateMutability": "view",
      "type": "function"
    },
    {
      "inputs": [],
      "name": "quorumDenominator",
      "outputs": [
        {
          "internalType": "uint256",
          "name": "",
          "type": "uint256"
        }
      ],
      "stateMutability": "view",
      "type": "function"
    },
    {
      "inputs": [],
      "name": "quorumNumerator",
      "outputs": [
        {
          "internalType": "uint256",
          "name": "",
          "type": "uint256"
        }
      ],
      "stateMutability": "view",
      "type": "function"
    },
    {
      "inputs": [
        {
          "internalType": "address",
          "name": "target",
          "type": "address"
        },
        {
          "internalType": "uint256",
          "name": "value",
          "type": "uint256"
        },
        {
          "internalType": "bytes",
          "name": "data",
          "type": "bytes"
        }
      ],
      "name": "relay",
      "outputs": [],
      "stateMutability": "nonpayable",
      "type": "function"
    },
    {
      "inputs": [
        {
          "internalType": "uint64",
          "name": "newVoteExtension",
          "type": "uint64"
        }
      ],
      "name": "setLateQuorumVoteExtension",
      "outputs": [],
      "stateMutability": "nonpayable",
      "type": "function"
    },
    {
      "inputs": [
        {
          "internalType": "uint256",
          "name": "newProposalThreshold",
          "type": "uint256"
        }
      ],
      "name": "setProposalThreshold",
      "outputs": [],
      "stateMutability": "nonpayable",
      "type": "function"
    },
    {
      "inputs": [
        {
          "internalType": "uint256",
          "name": "newVotingDelay",
          "type": "uint256"
        }
      ],
      "name": "setVotingDelay",
      "outputs": [],
      "stateMutability": "nonpayable",
      "type": "function"
    },
    {
      "inputs": [
        {
          "internalType": "uint256",
          "name": "newVotingPeriod",
          "type": "uint256"
        }
      ],
      "name": "setVotingPeriod",
      "outputs": [],
      "stateMutability": "nonpayable",
      "type": "function"
    },
    {
      "inputs": [
        {
          "internalType": "uint256",
          "name": "proposalId",
          "type": "uint256"
        }
      ],
      "name": "state",
      "outputs": [
        {
          "internalType": "enum IGovernorUpgradeable.ProposalState",
          "name": "",
          "type": "uint8"
        }
      ],
      "stateMutability": "view",
      "type": "function"
    },
    {
      "inputs": [
        {
          "internalType": "bytes4",
          "name": "interfaceId",
          "type": "bytes4"
        }
      ],
      "name": "supportsInterface",
      "outputs": [
        {
          "internalType": "bool",
          "name": "",
          "type": "bool"
        }
      ],
      "stateMutability": "view",
      "type": "function"
    },
    {
      "inputs": [],
      "name": "timelock",
      "outputs": [
        {
          "internalType": "address",
          "name": "",
          "type": "address"
        }
      ],
      "stateMutability": "view",
      "type": "function"
    },
    {
      "inputs": [],
      "name": "token",
      "outputs": [
        {
          "internalType": "contract IVotesUpgradeable",
          "name": "",
          "type": "address"
        }
      ],
      "stateMutability": "view",
      "type": "function"
    },
    {
      "inputs": [
        {
          "internalType": "uint256",
          "name": "newQuorumNumerator",
          "type": "uint256"
        }
      ],
      "name": "updateQuorumNumerator",
      "outputs": [],
      "stateMutability": "nonpayable",
      "type": "function"
    },
    {
      "inputs": [
        {
          "internalType": "contract ITimelockUpgradeable",
          "name": "newTimelock",
          "type": "address"
        }
      ],
      "name": "updateTimelock",
      "outputs": [],
      "stateMutability": "nonpayable",
      "type": "function"
    },
    {
      "inputs": [
        {
          "internalType": "address",
          "name": "newImplementation",
          "type": "address"
        }
      ],
      "name": "upgradeTo",
      "outputs": [],
      "stateMutability": "nonpayable",
      "type": "function"
    },
    {
      "inputs": [
        {
          "internalType": "address",
          "name": "newImplementation",
          "type": "address"
        },
        {
          "internalType": "bytes",
          "name": "data",
          "type": "bytes"
        }
      ],
      "name": "upgradeToAndCall",
      "outputs": [],
      "stateMutability": "payable",
      "type": "function"
    },
    {
      "inputs": [],
      "name": "version",
      "outputs": [
        {
          "internalType": "string",
          "name": "",
          "type": "string"
        }
      ],
      "stateMutability": "view",
      "type": "function"
    },
    {
      "inputs": [],
      "name": "votingDelay",
      "outputs": [
        {
          "internalType": "uint256",
          "name": "",
          "type": "uint256"
        }
      ],
      "stateMutability": "view",
      "type": "function"
    },
    {
      "inputs": [],
      "name": "votingPeriod",
      "outputs": [
        {
          "internalType": "uint256",
          "name": "",
          "type": "uint256"
        }
      ],
      "stateMutability": "view",
      "type": "function"
    },
    {
      "stateMutability": "payable",
      "type": "receive"
    }
  ],
  "transactionHash": "0x4a2a6ac9f25bac3178c41c24374c6bc554fa70ac7250c36d497d1538b6e72375",
  "args": [],
  "numDeployments": 1,
  "solcInputHash": "8514ab32ccaf9340b47247af03de72db",
  "bytecode": "0x60a06040523060805234801561001457600080fd5b50608051613d5e61004c60003960008181610c7e01528181610cbe01528181610e0501528181610e450152610ed80152613d5e6000f3fe60806040526004361061024a5760003560e01c806370b0f66011610139578063c28bc2fa116100b6578063deaaa7cc1161007a578063deaaa7cc1461075b578063ea0217cf1461078f578063eb9019d4146107af578063ece40cc1146107cf578063f8ce560a146107ef578063fc0c546a1461080f57600080fd5b8063c28bc2fa14610696578063c59057e4146106b6578063d07f91e9146106d6578063d33219b4146106f6578063dd4e2ba51461071557600080fd5b8063a7713a70116100fd578063a7713a701461060b578063a890c91014610621578063ab58fb8e14610641578063b58131b014610661578063c01f9e371461067657600080fd5b806370b0f660146105765780637b3c71d3146105965780637d5e81e2146105b65780638991255b146105d657806397c3d334146105f757600080fd5b80633932abb1116101c757806352d1902d1161018b57806352d1902d146104a1578063544ffc9c146104b657806354fd4d501461050c578063567813881461053657806358ae77ee1461055657600080fd5b80633932abb1146103e15780633bccf4fd146103f65780633e4f49e61461041657806343859632146104435780634f1ef2861461048e57600080fd5b8063160cbed71161020e578063160cbed7146103455780632656227d146103655780632d63f6931461037857806332b8113e146103985780633659cfe6146103c157600080fd5b806301ffc9a71461027257806302a251a3146102a757806306f3f9e6146102ca57806306fdde03146102ea57806313007d551461030c57600080fd5b3661026d5730610258610830565b6001600160a01b03161461026b57600080fd5b005b600080fd5b34801561027e57600080fd5b5061029261028d366004612f9a565b61084a565b60405190151581526020015b60405180910390f35b3480156102b357600080fd5b506102bc610875565b60405190815260200161029e565b3480156102d657600080fd5b5061026b6102e5366004612fc4565b610881565b3480156102f657600080fd5b506102ff6108ce565b60405161029e9190613035565b34801561031857600080fd5b5061028e5461032d906001600160a01b031681565b6040516001600160a01b03909116815260200161029e565b34801561035157600080fd5b506102bc61036036600461328b565b610961565b6102bc61037336600461328b565b610b65565b34801561038457600080fd5b506102bc610393366004612fc4565b610c3d565b3480156103a457600080fd5b50610291546040516001600160401b03909116815260200161029e565b3480156103cd57600080fd5b5061026b6103dc36600461331a565b610c74565b3480156103ed57600080fd5b506102bc610d50565b34801561040257600080fd5b506102bc61041136600461334d565b610d5c565b34801561042257600080fd5b50610436610431366004612fc4565b610df0565b60405161029e91906133b1565b34801561044f57600080fd5b5061029261045e3660046133d9565b6000828152610161602090815260408083206001600160a01b038516845260030190915290205460ff1692915050565b61026b61049c366004613409565b610dfb565b3480156104ad57600080fd5b506102bc610ecb565b3480156104c257600080fd5b506104f16104d1366004612fc4565b600090815261016160205260409020805460018201546002909201549092565b6040805193845260208401929092529082015260600161029e565b34801561051857600080fd5b506040805180820190915260018152603160f81b60208201526102ff565b34801561054257600080fd5b506102bc610551366004613458565b610f7e565b34801561056257600080fd5b5061026b61057136600461349b565b610fa7565b34801561058257600080fd5b5061026b610591366004612fc4565b611101565b3480156105a257600080fd5b506102bc6105b1366004613566565b611142565b3480156105c257600080fd5b506102bc6105d13660046135bf565b611194565b3480156105e257600080fd5b5061028f5461032d906001600160a01b031681565b34801561060357600080fd5b5060646102bc565b34801561061757600080fd5b506101c6546102bc565b34801561062d57600080fd5b5061026b61063c36600461331a565b6111ab565b34801561064d57600080fd5b506102bc61065c366004612fc4565b6111ec565b34801561066d57600080fd5b506102bc611289565b34801561068257600080fd5b506102bc610691366004612fc4565b611295565b3480156106a257600080fd5b5061026b6106b136600461367f565b6112a0565b3480156106c257600080fd5b506102bc6106d136600461328b565b611321565b3480156106e257600080fd5b5061026b6106f13660046136c2565b61135b565b34801561070257600080fd5b506101f8546001600160a01b031661032d565b34801561072157600080fd5b506040805180820190915260208082527f737570706f72743d627261766f2671756f72756d3d666f722c6162737461696e908201526102ff565b34801561076757600080fd5b506102bc7f150214d74d59b7d1e90c73fc22ef3d991dd0a76b046543d4d80ab92d2a50328f81565b34801561079b57600080fd5b5061026b6107aa366004612fc4565b61139c565b3480156107bb57600080fd5b506102bc6107ca3660046136dd565b6113dd565b3480156107db57600080fd5b5061026b6107ea366004612fc4565b6113e9565b3480156107fb57600080fd5b506102bc61080a366004612fc4565b61142a565b34801561081b57600080fd5b506101935461032d906001600160a01b031681565b60006108456101f8546001600160a01b031690565b905090565b60006001600160e01b031982166346efa5a160e01b148061086f575061086f82611435565b92915050565b60006108456101305490565b610889610830565b6001600160a01b0316336001600160a01b0316146108c25760405162461bcd60e51b81526004016108b990613709565b60405180910390fd5b6108cb8161146a565b50565b606061029080546108de90613740565b80601f016020809104026020016040519081016040528092919081815260200182805461090a90613740565b80156109575780601f1061092c57610100808354040283529160200191610957565b820191906000526020600020905b81548152906001019060200180831161093a57829003601f168201915b5050505050905090565b60008061097086868686611321565b9050600461097d82610df0565b600781111561098e5761098e61339b565b146109ab5760405162461bcd60e51b81526004016108b99061377a565b6101f8546040805163793d064960e11b815290516000926001600160a01b03169163f27a0c929160048083019260209291908290030181865afa1580156109f6573d6000803e3d6000fd5b505050506040513d601f19601f82011682018060405250810190610a1a91906137bb565b6101f85460405163b1c5f42760e01b81529192506001600160a01b03169063b1c5f42790610a55908a908a908a906000908b9060040161389d565b602060405180830381865afa158015610a72573d6000803e3d6000fd5b505050506040513d601f19601f82011682018060405250810190610a9691906137bb565b60008381526101f96020526040808220929092556101f85491516308f2a0bb60e41b81526001600160a01b0390921691638f2a0bb091610ae3918b918b918b91908b9089906004016138eb565b600060405180830381600087803b158015610afd57600080fd5b505af1158015610b11573d6000803e3d6000fd5b505050507f9a2e42fd6722813d69113e7d0079d3d940171428df7373df9c7f7617cfda2892828242610b439190613959565b6040805192835260208301919091520160405180910390a15095945050505050565b600080610b7486868686611321565b90506000610b8182610df0565b90506004816007811115610b9757610b9761339b565b1480610bb457506005816007811115610bb257610bb261339b565b145b610bd05760405162461bcd60e51b81526004016108b99061377a565b600082815260fe602052604090819020600201805460ff19166001179055517f712ae1383f79ac853f8d882153778e0260ef8f03b504e2866e0593e04d2b291f90610c1e9084815260200190565b60405180910390a1610c338288888888611533565b5095945050505050565b600081815260fe602090815260408083208151928301909152546001600160401b0316908190525b6001600160401b031692915050565b6001600160a01b037f0000000000000000000000000000000000000000000000000000000000000000163003610cbc5760405162461bcd60e51b81526004016108b990613971565b7f00000000000000000000000000000000000000000000000000000000000000006001600160a01b0316610d05600080516020613cb9833981519152546001600160a01b031690565b6001600160a01b031614610d2b5760405162461bcd60e51b81526004016108b9906139bd565b610d3481611540565b604080516000808252602082019092526108cb918391906115e5565b600061084561012f5490565b604080517f150214d74d59b7d1e90c73fc22ef3d991dd0a76b046543d4d80ab92d2a50328f602082015290810186905260ff851660608201526000908190610dc890610dc09060800160405160208183030381529060405280519060200120611755565b8686866117a3565b9050610de5878288604051806020016040528060008152506117c1565b979650505050505050565b600061086f826117cf565b6001600160a01b037f0000000000000000000000000000000000000000000000000000000000000000163003610e435760405162461bcd60e51b81526004016108b990613971565b7f00000000000000000000000000000000000000000000000000000000000000006001600160a01b0316610e8c600080516020613cb9833981519152546001600160a01b031690565b6001600160a01b031614610eb25760405162461bcd60e51b81526004016108b9906139bd565b610ebb82611540565b610ec7828260016115e5565b5050565b6000306001600160a01b037f00000000000000000000000000000000000000000000000000000000000000001614610f6b5760405162461bcd60e51b815260206004820152603860248201527f555550535570677261646561626c653a206d757374206e6f742062652063616c60448201527f6c6564207468726f7567682064656c656761746563616c6c000000000000000060648201526084016108b9565b50600080516020613cb983398151915290565b600080339050610f9f848285604051806020016040528060008152506117c1565b949350505050565b600054610100900460ff16610fc25760005460ff1615610fc6565b303b155b6110295760405162461bcd60e51b815260206004820152602e60248201527f496e697469616c697a61626c653a20636f6e747261637420697320616c72656160448201526d191e481a5b9a5d1a585b1a5e995960921b60648201526084016108b9565b600054610100900460ff1615801561104b576000805461ffff19166101011790555b61107b6040518060400160405280600f81526020016e476f7665726e6f72204d6f64756c6560881b81525061191c565b611086868686611973565b61108e6119a5565b611097896119ce565b6110a0836119fe565b6110a988611a2e565b6110db82336040518060400160405280600f81526020016e476f7665726e6f72204d6f64756c6560881b815250611a5e565b6110e487611ad4565b80156110f6576000805461ff00191690555b505050505050505050565b611109610830565b6001600160a01b0316336001600160a01b0316146111395760405162461bcd60e51b81526004016108b990613709565b6108cb81611b04565b60008033905061118a86828787878080601f0160208091040260200160405190810160405280939291908181526020018383808284376000920191909152506117c192505050565b9695505050505050565b60006111a285858585611b47565b95945050505050565b6111b3610830565b6001600160a01b0316336001600160a01b0316146111e35760405162461bcd60e51b81526004016108b990613709565b6108cb81611e01565b6101f85460008281526101f9602052604080822054905163d45c443560e01b81526004810191909152909182916001600160a01b039091169063d45c443590602401602060405180830381865afa15801561124b573d6000803e3d6000fd5b505050506040513d601f19601f8201168201806040525081019061126f91906137bb565b90508060011461127f5780611282565b60005b9392505050565b60006108456101315490565b600061086f82611e6c565b6112a8610830565b6001600160a01b0316336001600160a01b0316146112d85760405162461bcd60e51b81526004016108b990613709565b61131a8483838080601f016020809104026020016040519081016040528093929190818152602001838380828437600092019190915250889250611ea9915050565b5050505050565b60008484848460405160200161133a9493929190613a09565b60408051601f19818403018152919052805160209091012095945050505050565b611363610830565b6001600160a01b0316336001600160a01b0316146113935760405162461bcd60e51b81526004016108b990613709565b6108cb81611ecf565b6113a4610830565b6001600160a01b0316336001600160a01b0316146113d45760405162461bcd60e51b81526004016108b990613709565b6108cb81611f3b565b60006112828383611fde565b6113f1610830565b6001600160a01b0316336001600160a01b0316146114215760405162461bcd60e51b81526004016108b990613709565b6108cb81612055565b600061086f82612098565b60006001600160e01b031982166314026af160e01b148061086f57506301ffc9a760e01b6001600160e01b031983161461086f565b60648111156114ed5760405162461bcd60e51b815260206004820152604360248201527f476f7665726e6f72566f74657351756f72756d4672616374696f6e3a2071756f60448201527f72756d4e756d657261746f72206f7665722071756f72756d44656e6f6d696e616064820152623a37b960e91b608482015260a4016108b9565b6101c680549082905560408051828152602081018490527f0553476bf02ef2726e8ce5ced78d63e26e602e4a2257b1f559418e24b4633997910160405180910390a15050565b61131a8585858585612122565b61028e546040516001623b410b60e21b031981523360048201523060248201526000356001600160e01b03191660448201526001600160a01b039091169063ff12fbd490606401602060405180830381865afa1580156115a4573d6000803e3d6000fd5b505050506040513d601f19601f820116820180604052508101906115c89190613a54565b6108cb5760405163ea8e4eb560e01b815260040160405180910390fd5b7f4910fdfa16fed3260ed0e7147f7cc6da11a60208b5b9406d12a635614ffd91435460ff161561161d5761161883612197565b505050565b826001600160a01b03166352d1902d6040518163ffffffff1660e01b8152600401602060405180830381865afa925050508015611677575060408051601f3d908101601f19168201909252611674918101906137bb565b60015b6116da5760405162461bcd60e51b815260206004820152602e60248201527f45524331393637557067726164653a206e657720696d706c656d656e7461746960448201526d6f6e206973206e6f74205555505360901b60648201526084016108b9565b600080516020613cb983398151915281146117495760405162461bcd60e51b815260206004820152602960248201527f45524331393637557067726164653a20756e737570706f727465642070726f786044820152681a58589b195555525160ba1b60648201526084016108b9565b50611618838383612233565b600061086f61176261225e565b8360405161190160f01b6020820152602281018390526042810182905260009060620160405160208183030381529060405280519060200120905092915050565b60008060006117b4878787876122d9565b91509150610c33816123c6565b60006111a28585858561257c565b6000806117db83612667565b905060048160078111156117f1576117f161339b565b146117fc5792915050565b60008381526101f9602052604090205480611818575092915050565b6101f854604051632ab0f52960e01b8152600481018390526001600160a01b0390911690632ab0f52990602401602060405180830381865afa158015611862573d6000803e3d6000fd5b505050506040513d601f19601f820116820180604052508101906118869190613a54565b15611895575060079392505050565b6101f854604051632c258a9f60e11b8152600481018390526001600160a01b039091169063584b153e90602401602060405180830381865afa1580156118df573d6000803e3d6000fd5b505050506040513d601f19601f820116820180604052508101906119039190613a54565b15611912575060059392505050565b5060029392505050565b600054610100900460ff166119435760405162461bcd60e51b81526004016108b990613a76565b61196a816119656040805180820190915260018152603160f81b602082015290565b612777565b6108cb816127b8565b600054610100900460ff1661199a5760405162461bcd60e51b81526004016108b990613a76565b6116188383836127f2565b600054610100900460ff166119cc5760405162461bcd60e51b81526004016108b990613a76565b565b600054610100900460ff166119f55760405162461bcd60e51b81526004016108b990613a76565b6108cb81612834565b600054610100900460ff16611a255760405162461bcd60e51b81526004016108b990613a76565b6108cb8161287e565b600054610100900460ff16611a555760405162461bcd60e51b81526004016108b990613a76565b6108cb816128a5565b600054610100900460ff16611a855760405162461bcd60e51b81526004016108b990613a76565b61028e80546001600160a01b038086166001600160a01b03199283161790925561028f8054928516929091169190911790558051611acb90610290906020840190612f0a565b506116186119a5565b600054610100900460ff16611afb5760405162461bcd60e51b81526004016108b990613a76565b6108cb816128cc565b61012f5460408051918252602082018390527fc565b045403dc03c2eea82b81a0465edad9e2e7fc4d97e11421c209da93d7a93910160405180910390a161012f55565b6000611b51611289565b611b60336107ca600143613ac1565b1015611be05760405162461bcd60e51b815260206004820152604360248201527f476f7665726e6f72436f6d7061746962696c697479427261766f3a2070726f7060448201527f6f73657220766f7465732062656c6f772070726f706f73616c207468726573686064820152621bdb1960ea1b608482015260a4016108b9565b6000611bf58686868680519060200120611321565b90508451865114611c185760405162461bcd60e51b81526004016108b990613ad8565b8351865114611c395760405162461bcd60e51b81526004016108b990613ad8565b6000865111611c8a5760405162461bcd60e51b815260206004820152601860248201527f476f7665726e6f723a20656d7074792070726f706f73616c000000000000000060448201526064016108b9565b600081815260fe6020908152604091829020825191820190925281546001600160401b03169081905215611d0a5760405162461bcd60e51b815260206004820152602160248201527f476f7665726e6f723a2070726f706f73616c20616c72656164792065786973746044820152607360f81b60648201526084016108b9565b6000611d1c611d17610d50565b6128f3565b611d25436128f3565b611d2f9190613b19565b90506000611d3e611d17610875565b611d489083613b19565b9050611d54838361295f565b611d61600184018261295f565b7f7d84a6263ae0d98d3329bd7b46bb4e8d6f98cd35a7adb45c274c8b7fd5ebd5e084338b8b8d516001600160401b03811115611d9f57611d9f613048565b604051908082528060200260200182016040528015611dd257816020015b6060815260200190600190039081611dbd5790505b508c88888e604051611dec99989796959493929190613b44565b60405180910390a15091979650505050505050565b6101f854604080516001600160a01b03928316815291831660208301527f08f74ea46ef7894f65eabfb5e6e695de773a000b47c529ab559178069b226401910160405180910390a16101f880546001600160a01b0319166001600160a01b0392909216919091179055565b600061086f611e7a8361297d565b60008481526102926020908152604091829020825191820190925290546001600160401b0316908190526129ac565b6060610f9f848484604051806060016040528060298152602001613cd9602991396129c3565b61029154604080516001600160401b03928316815291831660208301527f7ca4ac117ed3cdce75c1161d8207c440389b1a15d69d096831664657c07dafc2910160405180910390a1610291805467ffffffffffffffff19166001600160401b0392909216919091179055565b60008111611f9b5760405162461bcd60e51b815260206004820152602760248201527f476f7665726e6f7253657474696e67733a20766f74696e6720706572696f6420604482015266746f6f206c6f7760c81b60648201526084016108b9565b6101305460408051918252602082018390527f7e3f7f0708a84de9203036abaa450dccc85ad5ff52f78c170f3edb55cf5e8828910160405180910390a161013055565b61019354604051630748d63560e31b81526001600160a01b038481166004830152602482018490526000921690633a46b1a890604401602060405180830381865afa158015612031573d6000803e3d6000fd5b505050506040513d601f19601f8201168201806040525081019061128291906137bb565b6101315460408051918252602082018390527fccb45da8d5717e6c4544694297c4ba5cf151d455c9bb0ed4fc7a38411bc05461910160405180910390a161013155565b600060646101c65461019354604051632394e7a360e21b8152600481018690526001600160a01b0390911690638e539e8c90602401602060405180830381865afa1580156120ea573d6000803e3d6000fd5b505050506040513d601f19601f8201168201806040525081019061210e91906137bb565b6121189190613c33565b61086f9190613c52565b6101f85460405163e38335e560e01b81526001600160a01b039091169063e38335e590349061215e90889088908890600090899060040161389d565b6000604051808303818588803b15801561217757600080fd5b505af115801561218b573d6000803e3d6000fd5b50505050505050505050565b6001600160a01b0381163b6122045760405162461bcd60e51b815260206004820152602d60248201527f455243313936373a206e657720696d706c656d656e746174696f6e206973206e60448201526c1bdd08184818dbdb9d1c9858dd609a1b60648201526084016108b9565b600080516020613cb983398151915280546001600160a01b0319166001600160a01b0392909216919091179055565b61223c83612ae9565b6000825111806122495750805b15611618576122588383612b29565b50505050565b60006108457f8b73c3c69bb8fe3d512ecc4cf759cc79239f7b179b0ffacaa9a75d522b39400f61228d60655490565b6066546040805160208101859052908101839052606081018290524660808201523060a082015260009060c0016040516020818303038152906040528051906020012090509392505050565b6000807f7fffffffffffffffffffffffffffffff5d576e7357a4501ddfe92f46681b20a083111561231057506000905060036123bd565b8460ff16601b1415801561232857508460ff16601c14155b1561233957506000905060046123bd565b6040805160008082526020820180845289905260ff881692820192909252606081018690526080810185905260019060a0016020604051602081039080840390855afa15801561238d573d6000803e3d6000fd5b5050604051601f1901519150506001600160a01b0381166123b6576000600192509250506123bd565b9150600090505b94509492505050565b60008160048111156123da576123da61339b565b036123e25750565b60018160048111156123f6576123f661339b565b036124435760405162461bcd60e51b815260206004820152601860248201527f45434453413a20696e76616c6964207369676e6174757265000000000000000060448201526064016108b9565b60028160048111156124575761245761339b565b036124a45760405162461bcd60e51b815260206004820152601f60248201527f45434453413a20696e76616c6964207369676e6174757265206c656e6774680060448201526064016108b9565b60038160048111156124b8576124b861339b565b036125105760405162461bcd60e51b815260206004820152602260248201527f45434453413a20696e76616c6964207369676e6174757265202773272076616c604482015261756560f01b60648201526084016108b9565b60048160048111156125245761252461339b565b036108cb5760405162461bcd60e51b815260206004820152602260248201527f45434453413a20696e76616c6964207369676e6174757265202776272076616c604482015261756560f01b60648201526084016108b9565b60008061258b86868686612c14565b60008781526102926020908152604091829020825191820190925281546001600160401b031690819052919250901580156125ca57506125ca87612d1e565b15610c335760006125e4610291546001600160401b031690565b6125ed436128f3565b6125f79190613b19565b905061260288611295565b816001600160401b03161115612651576040516001600160401b038216815288907f541f725fb9f7c98a30cc9c0ff32fbb14358cd7159c847a3aa20a2bdc442ba5119060200160405180910390a25b61265b828261295f565b50509050949350505050565b600081815260fe60205260408120600281015460ff161561268b5750600792915050565b6002810154610100900460ff16156126a65750600292915050565b60006126b184610c3d565b9050806000036127035760405162461bcd60e51b815260206004820152601d60248201527f476f7665726e6f723a20756e6b6e6f776e2070726f706f73616c20696400000060448201526064016108b9565b438110612714575060009392505050565b600061271f85611295565b905043811061273357506001949350505050565b61273c85612d1e565b801561275c57506000858152610161602052604090208054600190910154115b1561276c57506004949350505050565b506003949350505050565b600054610100900460ff1661279e5760405162461bcd60e51b81526004016108b990613a76565b815160209283012081519190920120606591909155606655565b600054610100900460ff166127df5760405162461bcd60e51b81526004016108b990613a76565b8051610ec79060fd906020840190612f0a565b600054610100900460ff166128195760405162461bcd60e51b81526004016108b990613a76565b61282283611b04565b61282b82611f3b565b61161881612055565b600054610100900460ff1661285b5760405162461bcd60e51b81526004016108b990613a76565b61019380546001600160a01b0319166001600160a01b0392909216919091179055565b600054610100900460ff166108c25760405162461bcd60e51b81526004016108b990613a76565b600054610100900460ff166111e35760405162461bcd60e51b81526004016108b990613a76565b600054610100900460ff166113935760405162461bcd60e51b81526004016108b990613a76565b60006001600160401b0382111561295b5760405162461bcd60e51b815260206004820152602660248201527f53616665436173743a2076616c756520646f65736e27742066697420696e203660448201526534206269747360d01b60648201526084016108b9565b5090565b815467ffffffffffffffff19166001600160401b0391909116179055565b600081815260fe602090815260408083208151928301909152600101546001600160401b031690819052610c65565b6000818310156129bc5781611282565b5090919050565b606082471015612a245760405162461bcd60e51b815260206004820152602660248201527f416464726573733a20696e73756666696369656e742062616c616e636520666f6044820152651c8818d85b1b60d21b60648201526084016108b9565b6001600160a01b0385163b612a7b5760405162461bcd60e51b815260206004820152601d60248201527f416464726573733a2063616c6c20746f206e6f6e2d636f6e747261637400000060448201526064016108b9565b600080866001600160a01b03168587604051612a979190613c74565b60006040518083038185875af1925050503d8060008114612ad4576040519150601f19603f3d011682016040523d82523d6000602084013e612ad9565b606091505b5091509150610de5828286612d56565b612af281612197565b6040516001600160a01b038216907fbc7cd75a20ee27fd9adebab32041f755214dbc6bffa90cc0225b39da2e5c2d3b90600090a250565b60606001600160a01b0383163b612b915760405162461bcd60e51b815260206004820152602660248201527f416464726573733a2064656c65676174652063616c6c20746f206e6f6e2d636f6044820152651b9d1c9858dd60d21b60648201526084016108b9565b600080846001600160a01b031684604051612bac9190613c74565b600060405180830381855af49150503d8060008114612be7576040519150601f19603f3d011682016040523d82523d6000602084013e612bec565b606091505b50915091506111a28282604051806060016040528060278152602001613d0260279139612d56565b600084815260fe602052604081206001612c2d87610df0565b6007811115612c3e57612c3e61339b565b14612c975760405162461bcd60e51b815260206004820152602360248201527f476f7665726e6f723a20766f7465206e6f742063757272656e746c792061637460448201526269766560e81b60648201526084016108b9565b604080516020810190915281546001600160401b031690819052600090612cbf9087906113dd565b9050612ccd87878784612d8f565b856001600160a01b03167fb8e138887d0aa13bab447e82de9d5c1777041ecd21ca36ba824ff1e6c07ddda488878488604051612d0c9493929190613c90565b60405180910390a29695505050505050565b60008181526101616020526040812060028101546001820154612d419190613959565b612d4d61080a85610c3d565b11159392505050565b60608315612d65575081611282565b825115612d755782518084602001fd5b8160405162461bcd60e51b81526004016108b99190613035565b6000848152610161602090815260408083206001600160a01b0387168452600381019092529091205460ff1615612e185760405162461bcd60e51b815260206004820152602760248201527f476f7665726e6f72566f74696e6753696d706c653a20766f746520616c726561604482015266191e4818d85cdd60ca1b60648201526084016108b9565b6001600160a01b03841660009081526003820160205260409020805460ff1916600117905560ff8316612e645781816000016000828254612e599190613959565b9091555061131a9050565b60001960ff841601612e845781816001016000828254612e599190613959565b60011960ff841601612ea45781816002016000828254612e599190613959565b60405162461bcd60e51b815260206004820152603560248201527f476f7665726e6f72566f74696e6753696d706c653a20696e76616c69642076616044820152746c756520666f7220656e756d20566f74655479706560581b60648201526084016108b9565b828054612f1690613740565b90600052602060002090601f016020900481019282612f385760008555612f7e565b82601f10612f5157805160ff1916838001178555612f7e565b82800160010185558215612f7e579182015b82811115612f7e578251825591602001919060010190612f63565b5061295b9291505b8082111561295b5760008155600101612f86565b600060208284031215612fac57600080fd5b81356001600160e01b03198116811461128257600080fd5b600060208284031215612fd657600080fd5b5035919050565b60005b83811015612ff8578181015183820152602001612fe0565b838111156122585750506000910152565b60008151808452613021816020860160208601612fdd565b601f01601f19169290920160200192915050565b6020815260006112826020830184613009565b634e487b7160e01b600052604160045260246000fd5b604051601f8201601f191681016001600160401b038111828210171561308657613086613048565b604052919050565b60006001600160401b038211156130a7576130a7613048565b5060051b60200190565b6001600160a01b03811681146108cb57600080fd5b600082601f8301126130d757600080fd5b813560206130ec6130e78361308e565b61305e565b82815260059290921b8401810191818101908684111561310b57600080fd5b8286015b8481101561312f578035613122816130b1565b835291830191830161310f565b509695505050505050565b600082601f83011261314b57600080fd5b8135602061315b6130e78361308e565b82815260059290921b8401810191818101908684111561317a57600080fd5b8286015b8481101561312f578035835291830191830161317e565b60006001600160401b038311156131ae576131ae613048565b6131c1601f8401601f191660200161305e565b90508281528383830111156131d557600080fd5b828260208301376000602084830101529392505050565b600082601f8301126131fd57600080fd5b61128283833560208501613195565b600082601f83011261321d57600080fd5b8135602061322d6130e78361308e565b82815260059290921b8401810191818101908684111561324c57600080fd5b8286015b8481101561312f5780356001600160401b0381111561326f5760008081fd5b61327d8986838b01016131ec565b845250918301918301613250565b600080600080608085870312156132a157600080fd5b84356001600160401b03808211156132b857600080fd5b6132c4888389016130c6565b955060208701359150808211156132da57600080fd5b6132e68883890161313a565b945060408701359150808211156132fc57600080fd5b506133098782880161320c565b949793965093946060013593505050565b60006020828403121561332c57600080fd5b8135611282816130b1565b803560ff8116811461334857600080fd5b919050565b600080600080600060a0868803121561336557600080fd5b8535945061337560208701613337565b935061338360408701613337565b94979396509394606081013594506080013592915050565b634e487b7160e01b600052602160045260246000fd5b60208101600883106133d357634e487b7160e01b600052602160045260246000fd5b91905290565b600080604083850312156133ec57600080fd5b8235915060208301356133fe816130b1565b809150509250929050565b6000806040838503121561341c57600080fd5b8235613427816130b1565b915060208301356001600160401b0381111561344257600080fd5b61344e858286016131ec565b9150509250929050565b6000806040838503121561346b57600080fd5b8235915061347b60208401613337565b90509250929050565b80356001600160401b038116811461334857600080fd5b600080600080600080600080610100898b0312156134b857600080fd5b88356134c3816130b1565b975060208901356134d3816130b1565b96506134e160408a01613484565b9550606089013594506080890135935060a0890135925060c0890135915060e089013561350d816130b1565b809150509295985092959890939650565b60008083601f84011261353057600080fd5b5081356001600160401b0381111561354757600080fd5b60208301915083602082850101111561355f57600080fd5b9250929050565b6000806000806060858703121561357c57600080fd5b8435935061358c60208601613337565b925060408501356001600160401b038111156135a757600080fd5b6135b38782880161351e565b95989497509550505050565b600080600080608085870312156135d557600080fd5b84356001600160401b03808211156135ec57600080fd5b6135f8888389016130c6565b9550602087013591508082111561360e57600080fd5b61361a8883890161313a565b9450604087013591508082111561363057600080fd5b61363c8883890161320c565b9350606087013591508082111561365257600080fd5b508501601f8101871361366457600080fd5b61367387823560208401613195565b91505092959194509250565b6000806000806060858703121561369557600080fd5b84356136a0816130b1565b93506020850135925060408501356001600160401b038111156135a757600080fd5b6000602082840312156136d457600080fd5b61128282613484565b600080604083850312156136f057600080fd5b82356136fb816130b1565b946020939093013593505050565b60208082526018908201527f476f7665726e6f723a206f6e6c79476f7665726e616e63650000000000000000604082015260600190565b600181811c9082168061375457607f821691505b60208210810361377457634e487b7160e01b600052602260045260246000fd5b50919050565b60208082526021908201527f476f7665726e6f723a2070726f706f73616c206e6f74207375636365737366756040820152601b60fa1b606082015260800190565b6000602082840312156137cd57600080fd5b5051919050565b600081518084526020808501945080840160005b8381101561380d5781516001600160a01b0316875295820195908201906001016137e8565b509495945050505050565b600081518084526020808501945080840160005b8381101561380d5781518752958201959082019060010161382c565b600081518084526020808501808196508360051b8101915082860160005b8581101561389057828403895261387e848351613009565b98850198935090840190600101613866565b5091979650505050505050565b60a0815260006138b060a08301886137d4565b82810360208401526138c28188613818565b905082810360408401526138d68187613848565b60608401959095525050608001529392505050565b60c0815260006138fe60c08301896137d4565b82810360208401526139108189613818565b905082810360408401526139248188613848565b60608401969096525050608081019290925260a0909101529392505050565b634e487b7160e01b600052601160045260246000fd5b6000821982111561396c5761396c613943565b500190565b6020808252602c908201527f46756e6374696f6e206d7573742062652063616c6c6564207468726f7567682060408201526b19195b1959d85d1958d85b1b60a21b606082015260800190565b6020808252602c908201527f46756e6374696f6e206d7573742062652063616c6c6564207468726f7567682060408201526b6163746976652070726f787960a01b606082015260800190565b608081526000613a1c60808301876137d4565b8281036020840152613a2e8187613818565b90508281036040840152613a428186613848565b91505082606083015295945050505050565b600060208284031215613a6657600080fd5b8151801515811461128257600080fd5b6020808252602b908201527f496e697469616c697a61626c653a20636f6e7472616374206973206e6f74206960408201526a6e697469616c697a696e6760a81b606082015260800190565b600082821015613ad357613ad3613943565b500390565b60208082526021908201527f476f7665726e6f723a20696e76616c69642070726f706f73616c206c656e67746040820152600d60fb1b606082015260800190565b60006001600160401b03808316818516808303821115613b3b57613b3b613943565b01949350505050565b60006101208b8352602060018060a01b038c1681850152816040850152613b6d8285018c6137d4565b91508382036060850152613b81828b613818565b915083820360808501528189518084528284019150828160051b850101838c0160005b83811015613bd257601f19878403018552613bc0838351613009565b94860194925090850190600101613ba4565b505086810360a0880152613be6818c613848565b945050505050613c0160c08401876001600160401b03169052565b6001600160401b03851660e0840152828103610100840152613c238185613009565b9c9b505050505050505050505050565b6000816000190483118215151615613c4d57613c4d613943565b500290565b600082613c6f57634e487b7160e01b600052601260045260246000fd5b500490565b60008251613c86818460208701612fdd565b9190910192915050565b84815260ff8416602082015282604082015260806060820152600061118a608083018461300956fe360894a13ba1a3210667c828492db98dca3e2076cc3735a920a3ca505d382bbc416464726573733a206c6f772d6c6576656c2063616c6c20776974682076616c7565206661696c6564416464726573733a206c6f772d6c6576656c2064656c65676174652063616c6c206661696c6564a2646970667358221220f1794031c14dbb1914e7c2bfcf85bb2cddcb896e49fc9363e636bfaa6a579d8364736f6c634300080d0033",
  "devdoc": {
    "details": "Governor Module used to implement 1 token 1 vote. This acts as an extension of the MVD and permissions are controlled by access control.Gov Module is extended by the timelock contract which creates a lockup period before execution.",
    "kind": "dev",
    "methods": {
      "COUNTING_MODE()": {
        "details": "See {IGovernor-COUNTING_MODE}."
      },
      "castVote(uint256,uint8)": {
        "details": "See {IGovernor-castVote}."
      },
      "castVoteBySig(uint256,uint8,uint8,bytes32,bytes32)": {
        "details": "See {IGovernor-castVoteBySig}."
      },
      "castVoteWithReason(uint256,uint8,string)": {
        "details": "See {IGovernor-castVoteWithReason}."
      },
      "execute(address[],uint256[],bytes[],bytes32)": {
        "details": "See {IGovernor-execute}."
      },
      "getVotes(address,uint256)": {
        "details": "Voting power of an `account` at a specific `blockNumber`. Note: this can be implemented in a number of ways, for example by reading the delegated balance from one (or multiple), {ERC20Votes} tokens.",
        "params": {
          "account": "Voting weight of this Address",
          "blockNumber": "Checkpoint at this blockNumber"
        }
      },
      "hasVoted(uint256,address)": {
        "details": "See {IGovernor-hasVoted}."
      },
      "hashProposal(address[],uint256[],bytes[],bytes32)": {
        "details": "See {IGovernor-hashProposal}. The proposal id is produced by hashing the RLC encoded `targets` array, the `values` array, the `calldatas` array and the descriptionHash (bytes32 which itself is the keccak256 hash of the description string). This proposal id can be produced from the proposal data which is part of the {ProposalCreated} event. It can even be computed in advance, before the proposal is submitted. Note that the chainId and the governor address are not part of the proposal id computation. Consequently, the same proposal (with same operation and same description) will have the same id if submitted on multiple governors accross multiple networks. This also means that in order to execute the same operation twice (on the same governor) the proposer will have to change the description in order to avoid proposal id conflicts."
      },
      "initialize(address,address,uint64,uint256,uint256,uint256,uint256,address)": {
        "details": "Configures Gov Module implementationCalled once during deployment atomically",
        "params": {
          "_accessControl": "Address of Access Control",
          "_initialProposalThreshold": "Total tokens required to submit a proposal",
          "_initialQuorumNumeratorValue": "Total votes needed to reach quorum",
          "_initialVoteExtension": "Allow users to vote if quorum attack is preformed",
          "_initialVotingDelay": "Allow users to research proposals before voting period",
          "_initialVotingPeriod": "Length of voting period (blocks)",
          "_timelock": "Timelock vest proposals to allow detractors to exit system",
          "_token": "Voting token uses snapshot feature"
        }
      },
      "lateQuorumVoteExtension()": {
        "details": "Returns the current value of the vote extension parameter: the number of blocks that are required to pass from the time a proposal reaches quorum until its voting period ends."
      },
      "name()": {
        "returns": {
          "_0": "The module name"
        }
      },
      "proposalDeadline(uint256)": {
        "details": "Block number at which votes close. Votes close at the end of this block, so it is possible to cast a vote during this block.",
        "params": {
          "proposalId": "keccak256 hash of proposal params"
        }
      },
      "proposalEta(uint256)": {
        "details": "Public accessor to check the eta of a queued proposal",
        "params": {
          "proposalId": "keccak256 hash of proposal params"
        }
      },
      "proposalSnapshot(uint256)": {
        "details": "See {IGovernor-proposalSnapshot}."
      },
      "proposalThreshold()": {
        "details": "Total vote weight required to create a proposal"
      },
      "proposalVotes(uint256)": {
        "details": "Accessor to the internal vote counts."
      },
      "propose(address[],uint256[],bytes[],string)": {
        "details": "Create a new proposal. Vote start {IGovernor-votingDelay} blocks after the proposal is created and ends {IGovernor-votingPeriod} blocks after the voting starts. Emits a {ProposalCreated} event.",
        "params": {
          "calldatas": "Function Sigs w/ Params",
          "description": "Description of proposal",
          "targets": "Contract addresses the DAO will call",
          "values": "Ether values to be sent to the target address"
        }
      },
      "proxiableUUID()": {
        "details": "Implementation of the ERC1822 {proxiableUUID} function. This returns the storage slot used by the implementation. It is used to validate that the this implementation remains valid after an upgrade. IMPORTANT: A proxy pointing at a proxiable contract should not be considered proxiable itself, because this risks bricking a proxy that upgrades to it, by delegating to itself until out of gas. Thus it is critical that this function revert if invoked through a proxy. This is guaranteed by the `notDelegated` modifier."
      },
      "queue(address[],uint256[],bytes[],bytes32)": {
        "details": "Function to queue a proposal to the timelock.",
        "params": {
          "calldatas": "Function Sigs w/ Params ",
          "descriptionHash": "Description of proposal",
          "targets": "Contract addresses the DAO will call",
          "values": "Ether values to be sent to the target address"
        }
      },
      "quorum(uint256)": {
        "details": "Minimum number of cast voted required for a proposal to be successful. Note: The `blockNumber` parameter corresponds to the snaphot used for counting vote. This allows to scale the quroum depending on values such as the totalSupply of a token at this block (see {ERC20Votes}).",
        "params": {
          "blockNumber": "Checkpoint at this blockNumber"
        }
      },
      "quorumDenominator()": {
        "details": "Returns the quorum denominator. Defaults to 100, but may be overridden."
      },
      "quorumNumerator()": {
        "details": "Returns the current quorum numerator. See {quorumDenominator}."
      },
      "relay(address,uint256,bytes)": {
        "details": "Relays a transaction or function call to an arbitrary target. In cases where the governance executor is some contract other than the governor itself, like when using a timelock, this function can be invoked in a governance proposal to recover tokens or Ether that was sent to the governor contract by mistake. Note that if the executor is simply the governor itself, use of `relay` is redundant."
      },
      "setLateQuorumVoteExtension(uint64)": {
        "details": "Changes the {lateQuorumVoteExtension}. This operation can only be performed by the governance executor, generally through a governance proposal. Emits a {LateQuorumVoteExtensionSet} event."
      },
      "setProposalThreshold(uint256)": {
        "details": "Update the proposal threshold. This operation can only be performed through a governance proposal. Emits a {ProposalThresholdSet} event."
      },
      "setVotingDelay(uint256)": {
        "details": "Update the voting delay. This operation can only be performed through a governance proposal. Emits a {VotingDelaySet} event."
      },
      "setVotingPeriod(uint256)": {
        "details": "Update the voting period. This operation can only be performed through a governance proposal. Emits a {VotingPeriodSet} event."
      },
      "state(uint256)": {
        "details": "Overriden version of the {Governor-state} function with added support for the `Queued` status.",
        "params": {
          "proposalId": "keccak256 hash of proposal params"
        }
      },
      "supportsInterface(bytes4)": {
        "details": "See {IERC165-supportsInterface}.",
        "params": {
          "interfaceId": "An interface ID bytes4 as defined by ERC-165"
        },
        "returns": {
          "_0": "bool Indicates whether the interface is supported"
        }
      },
      "timelock()": {
        "details": "Public accessor to check the address of the timelock"
      },
      "updateQuorumNumerator(uint256)": {
        "details": "Changes the quorum numerator. Emits a {QuorumNumeratorUpdated} event. Requirements: - Must be called through a governance proposal. - New numerator must be smaller or equal to the denominator."
      },
      "updateTimelock(address)": {
        "details": "Public endpoint to update the underlying timelock instance. Restricted to the timelock itself, so updates must be proposed, scheduled, and executed through governance proposals. CAUTION: It is not recommended to change the timelock while there are other queued governance proposals.",
        "params": {
          "newTimelock": "Address of new Timelock Address"
        }
      },
      "upgradeTo(address)": {
        "details": "Upgrade the implementation of the proxy to `newImplementation`. Calls {_authorizeUpgrade}. Emits an {Upgraded} event."
      },
      "upgradeToAndCall(address,bytes)": {
        "details": "Upgrade the implementation of the proxy to `newImplementation`, and subsequently execute the function call encoded in `data`. Calls {_authorizeUpgrade}. Emits an {Upgraded} event."
      },
      "version()": {
        "details": "See {IGovernor-version}."
      },
      "votingDelay()": {
        "details": "Delay, in number of block, between the proposal is created and the vote starts. This can be increassed to leave time for users to buy voting power, of delegate it, before the voting of a proposal starts."
      },
      "votingPeriod()": {
        "details": "Delay, in number of blocks, between the vote start and vote ends. NOTE: The {votingDelay} can delay the start of the vote. This must be considered when setting the voting duration compared to the voting delay."
      }
    },
    "version": 1
  },
  "userdoc": {
    "kind": "user",
    "methods": {
      "getVotes(address,uint256)": {
        "notice": "module:reputation"
      },
      "name()": {
        "notice": "Returns the module name"
      },
      "proposalDeadline(uint256)": {
        "notice": "module:core"
      },
      "quorum(uint256)": {
        "notice": "module:user-config"
      },
      "votingDelay()": {
        "notice": "module:user-config"
      },
      "votingPeriod()": {
        "notice": "module:user-config"
      }
    },
    "version": 1
  },
  "storageLayout": {
    "storage": [
      {
        "astId": 4472,
        "contract": "contracts/Governor/GovernorModule.sol:GovernorModule",
        "label": "_initialized",
        "offset": 0,
        "slot": "0",
        "type": "t_bool"
      },
      {
        "astId": 4475,
        "contract": "contracts/Governor/GovernorModule.sol:GovernorModule",
        "label": "_initializing",
        "offset": 1,
        "slot": "0",
        "type": "t_bool"
      },
      {
        "astId": 4959,
        "contract": "contracts/Governor/GovernorModule.sol:GovernorModule",
        "label": "__gap",
        "offset": 0,
        "slot": "1",
        "type": "t_array(t_uint256)50_storage"
      },
      {
        "astId": 6037,
        "contract": "contracts/Governor/GovernorModule.sol:GovernorModule",
        "label": "__gap",
        "offset": 0,
        "slot": "51",
        "type": "t_array(t_uint256)50_storage"
      },
      {
        "astId": 5853,
        "contract": "contracts/Governor/GovernorModule.sol:GovernorModule",
        "label": "_HASHED_NAME",
        "offset": 0,
        "slot": "101",
        "type": "t_bytes32"
      },
      {
        "astId": 5855,
        "contract": "contracts/Governor/GovernorModule.sol:GovernorModule",
        "label": "_HASHED_VERSION",
        "offset": 0,
        "slot": "102",
        "type": "t_bytes32"
      },
      {
        "astId": 5993,
        "contract": "contracts/Governor/GovernorModule.sol:GovernorModule",
        "label": "__gap",
        "offset": 0,
        "slot": "103",
        "type": "t_array(t_uint256)50_storage"
      },
      {
        "astId": 3151,
        "contract": "contracts/Governor/GovernorModule.sol:GovernorModule",
        "label": "__gap",
        "offset": 0,
        "slot": "153",
        "type": "t_array(t_uint256)50_storage"
      },
      {
        "astId": 12382,
        "contract": "contracts/Governor/GovernorModule.sol:GovernorModule",
        "label": "__gap",
        "offset": 0,
        "slot": "203",
        "type": "t_array(t_uint256)50_storage"
      },
      {
        "astId": 2065,
        "contract": "contracts/Governor/GovernorModule.sol:GovernorModule",
        "label": "_name",
        "offset": 0,
        "slot": "253",
        "type": "t_string_storage"
      },
      {
        "astId": 2070,
        "contract": "contracts/Governor/GovernorModule.sol:GovernorModule",
        "label": "_proposals",
        "offset": 0,
        "slot": "254",
        "type": "t_mapping(t_uint256,t_struct(ProposalCore)2063_storage)"
      },
      {
        "astId": 2895,
        "contract": "contracts/Governor/GovernorModule.sol:GovernorModule",
        "label": "__gap",
        "offset": 0,
        "slot": "255",
        "type": "t_array(t_uint256)48_storage"
      },
      {
        "astId": 3611,
        "contract": "contracts/Governor/GovernorModule.sol:GovernorModule",
        "label": "_votingDelay",
        "offset": 0,
        "slot": "303",
        "type": "t_uint256"
      },
      {
        "astId": 3613,
        "contract": "contracts/Governor/GovernorModule.sol:GovernorModule",
        "label": "_votingPeriod",
        "offset": 0,
        "slot": "304",
        "type": "t_uint256"
      },
      {
        "astId": 3615,
        "contract": "contracts/Governor/GovernorModule.sol:GovernorModule",
        "label": "_proposalThreshold",
        "offset": 0,
        "slot": "305",
        "type": "t_uint256"
      },
      {
        "astId": 3805,
        "contract": "contracts/Governor/GovernorModule.sol:GovernorModule",
        "label": "__gap",
        "offset": 0,
        "slot": "306",
        "type": "t_array(t_uint256)47_storage"
      },
      {
        "astId": 3193,
        "contract": "contracts/Governor/GovernorModule.sol:GovernorModule",
        "label": "_proposalVotes",
        "offset": 0,
        "slot": "353",
        "type": "t_mapping(t_uint256,t_struct(ProposalVote)3188_storage)"
      },
      {
        "astId": 3395,
        "contract": "contracts/Governor/GovernorModule.sol:GovernorModule",
        "label": "__gap",
        "offset": 0,
        "slot": "354",
        "type": "t_array(t_uint256)49_storage"
      },
      {
        "astId": 3948,
        "contract": "contracts/Governor/GovernorModule.sol:GovernorModule",
        "label": "token",
        "offset": 0,
        "slot": "403",
        "type": "t_contract(IVotesUpgradeable)4076"
      },
      {
        "astId": 3997,
        "contract": "contracts/Governor/GovernorModule.sol:GovernorModule",
        "label": "__gap",
        "offset": 0,
        "slot": "404",
        "type": "t_array(t_uint256)50_storage"
      },
      {
        "astId": 3817,
        "contract": "contracts/Governor/GovernorModule.sol:GovernorModule",
        "label": "_quorumNumerator",
        "offset": 0,
        "slot": "454",
        "type": "t_uint256"
      },
      {
        "astId": 3934,
        "contract": "contracts/Governor/GovernorModule.sol:GovernorModule",
        "label": "__gap",
        "offset": 0,
        "slot": "455",
        "type": "t_array(t_uint256)49_storage"
      },
      {
        "astId": 10766,
        "contract": "contracts/Governor/GovernorModule.sol:GovernorModule",
        "label": "_timelock",
        "offset": 0,
        "slot": "504",
        "type": "t_contract(ITimelockUpgradeable)12662"
      },
      {
        "astId": 10770,
        "contract": "contracts/Governor/GovernorModule.sol:GovernorModule",
        "label": "_timelockIds",
        "offset": 0,
        "slot": "505",
        "type": "t_mapping(t_uint256,t_bytes32)"
      },
      {
        "astId": 11149,
        "contract": "contracts/Governor/GovernorModule.sol:GovernorModule",
        "label": "__gap",
        "offset": 0,
        "slot": "506",
        "type": "t_array(t_uint256)48_storage"
      },
      {
        "astId": 4454,
        "contract": "contracts/Governor/GovernorModule.sol:GovernorModule",
        "label": "__gap",
        "offset": 0,
        "slot": "554",
        "type": "t_array(t_uint256)50_storage"
      },
      {
        "astId": 4674,
        "contract": "contracts/Governor/GovernorModule.sol:GovernorModule",
        "label": "__gap",
        "offset": 0,
        "slot": "604",
        "type": "t_array(t_uint256)50_storage"
      },
      {
        "astId": 1401,
        "contract": "contracts/Governor/GovernorModule.sol:GovernorModule",
        "label": "accessControl",
        "offset": 0,
        "slot": "654",
        "type": "t_contract(IAccessControlDAO)1844"
      },
      {
        "astId": 1403,
        "contract": "contracts/Governor/GovernorModule.sol:GovernorModule",
        "label": "moduleFactory",
        "offset": 0,
        "slot": "655",
        "type": "t_address"
      },
      {
        "astId": 1405,
        "contract": "contracts/Governor/GovernorModule.sol:GovernorModule",
        "label": "_name",
        "offset": 0,
        "slot": "656",
        "type": "t_string_storage"
      },
      {
        "astId": 3415,
        "contract": "contracts/Governor/GovernorModule.sol:GovernorModule",
        "label": "_voteExtension",
        "offset": 0,
        "slot": "657",
        "type": "t_uint64"
      },
      {
        "astId": 3420,
        "contract": "contracts/Governor/GovernorModule.sol:GovernorModule",
        "label": "_extendedDeadlines",
        "offset": 0,
        "slot": "658",
        "type": "t_mapping(t_uint256,t_struct(BlockNumber)5334_storage)"
      },
      {
        "astId": 3599,
        "contract": "contracts/Governor/GovernorModule.sol:GovernorModule",
        "label": "__gap",
        "offset": 0,
        "slot": "659",
        "type": "t_array(t_uint256)48_storage"
      }
    ],
    "types": {
      "t_address": {
        "encoding": "inplace",
        "label": "address",
        "numberOfBytes": "20"
      },
      "t_array(t_uint256)47_storage": {
        "base": "t_uint256",
        "encoding": "inplace",
        "label": "uint256[47]",
        "numberOfBytes": "1504"
      },
      "t_array(t_uint256)48_storage": {
        "base": "t_uint256",
        "encoding": "inplace",
        "label": "uint256[48]",
        "numberOfBytes": "1536"
      },
      "t_array(t_uint256)49_storage": {
        "base": "t_uint256",
        "encoding": "inplace",
        "label": "uint256[49]",
        "numberOfBytes": "1568"
      },
      "t_array(t_uint256)50_storage": {
        "base": "t_uint256",
        "encoding": "inplace",
        "label": "uint256[50]",
        "numberOfBytes": "1600"
      },
      "t_bool": {
        "encoding": "inplace",
        "label": "bool",
        "numberOfBytes": "1"
      },
      "t_bytes32": {
        "encoding": "inplace",
        "label": "bytes32",
        "numberOfBytes": "32"
      },
      "t_contract(IAccessControlDAO)1844": {
        "encoding": "inplace",
        "label": "contract IAccessControlDAO",
        "numberOfBytes": "20"
      },
      "t_contract(ITimelockUpgradeable)12662": {
        "encoding": "inplace",
        "label": "contract ITimelockUpgradeable",
        "numberOfBytes": "20"
      },
      "t_contract(IVotesUpgradeable)4076": {
        "encoding": "inplace",
        "label": "contract IVotesUpgradeable",
        "numberOfBytes": "20"
      },
      "t_mapping(t_address,t_bool)": {
        "encoding": "mapping",
        "key": "t_address",
        "label": "mapping(address => bool)",
        "numberOfBytes": "32",
        "value": "t_bool"
      },
      "t_mapping(t_uint256,t_bytes32)": {
        "encoding": "mapping",
        "key": "t_uint256",
        "label": "mapping(uint256 => bytes32)",
        "numberOfBytes": "32",
        "value": "t_bytes32"
      },
      "t_mapping(t_uint256,t_struct(BlockNumber)5334_storage)": {
        "encoding": "mapping",
        "key": "t_uint256",
        "label": "mapping(uint256 => struct TimersUpgradeable.BlockNumber)",
        "numberOfBytes": "32",
        "value": "t_struct(BlockNumber)5334_storage"
      },
      "t_mapping(t_uint256,t_struct(ProposalCore)2063_storage)": {
        "encoding": "mapping",
        "key": "t_uint256",
        "label": "mapping(uint256 => struct GovernorUpgradeable.ProposalCore)",
        "numberOfBytes": "32",
        "value": "t_struct(ProposalCore)2063_storage"
      },
      "t_mapping(t_uint256,t_struct(ProposalVote)3188_storage)": {
        "encoding": "mapping",
        "key": "t_uint256",
        "label": "mapping(uint256 => struct GovernorCountingSimpleUpgradeable.ProposalVote)",
        "numberOfBytes": "32",
        "value": "t_struct(ProposalVote)3188_storage"
      },
      "t_string_storage": {
        "encoding": "bytes",
        "label": "string",
        "numberOfBytes": "32"
      },
      "t_struct(BlockNumber)5334_storage": {
        "encoding": "inplace",
        "label": "struct TimersUpgradeable.BlockNumber",
        "members": [
          {
            "astId": 5333,
            "contract": "contracts/Governor/GovernorModule.sol:GovernorModule",
            "label": "_deadline",
            "offset": 0,
            "slot": "0",
            "type": "t_uint64"
          }
        ],
        "numberOfBytes": "32"
      },
      "t_struct(ProposalCore)2063_storage": {
        "encoding": "inplace",
        "label": "struct GovernorUpgradeable.ProposalCore",
        "members": [
          {
            "astId": 2055,
            "contract": "contracts/Governor/GovernorModule.sol:GovernorModule",
            "label": "voteStart",
            "offset": 0,
            "slot": "0",
            "type": "t_struct(BlockNumber)5334_storage"
          },
          {
            "astId": 2058,
            "contract": "contracts/Governor/GovernorModule.sol:GovernorModule",
            "label": "voteEnd",
            "offset": 0,
            "slot": "1",
            "type": "t_struct(BlockNumber)5334_storage"
          },
          {
            "astId": 2060,
            "contract": "contracts/Governor/GovernorModule.sol:GovernorModule",
            "label": "executed",
            "offset": 0,
            "slot": "2",
            "type": "t_bool"
          },
          {
            "astId": 2062,
            "contract": "contracts/Governor/GovernorModule.sol:GovernorModule",
            "label": "canceled",
            "offset": 1,
            "slot": "2",
            "type": "t_bool"
          }
        ],
        "numberOfBytes": "96"
      },
      "t_struct(ProposalVote)3188_storage": {
        "encoding": "inplace",
        "label": "struct GovernorCountingSimpleUpgradeable.ProposalVote",
        "members": [
          {
            "astId": 3179,
            "contract": "contracts/Governor/GovernorModule.sol:GovernorModule",
            "label": "againstVotes",
            "offset": 0,
            "slot": "0",
            "type": "t_uint256"
          },
          {
            "astId": 3181,
            "contract": "contracts/Governor/GovernorModule.sol:GovernorModule",
            "label": "forVotes",
            "offset": 0,
            "slot": "1",
            "type": "t_uint256"
          },
          {
            "astId": 3183,
            "contract": "contracts/Governor/GovernorModule.sol:GovernorModule",
            "label": "abstainVotes",
            "offset": 0,
            "slot": "2",
            "type": "t_uint256"
          },
          {
            "astId": 3187,
            "contract": "contracts/Governor/GovernorModule.sol:GovernorModule",
            "label": "hasVoted",
            "offset": 0,
            "slot": "3",
            "type": "t_mapping(t_address,t_bool)"
          }
        ],
        "numberOfBytes": "128"
      },
      "t_uint256": {
        "encoding": "inplace",
        "label": "uint256",
        "numberOfBytes": "32"
      },
      "t_uint64": {
        "encoding": "inplace",
        "label": "uint64",
        "numberOfBytes": "8"
      }
    }
  }
}